:0300000002093BB7
:0C093B00787FE4F6D8FD75816002098227
:1004D800E4F508120B98120C84120CA5120C3B12AE
:1004E8000B63E5406005E4F54A80F77510117B124F
:1004F8007D147F07120C9BE54160F0434980754AE3
:1005080007E53E14B4090050F590051F75F003A4E3
:10051800C58325F0C5837302053A020551020569B2
:1005280002058102059A0205B30205CD0205E9021A
:100538000603E4F514F513F512F5118541157F84CA
:100548007E03FDFC12062180B5E475140AF513F547
:1005580012F5118541157F087E07FDFC12062180E2
:100568009DE475141EF513F512F5118541157F10DC
:100578007E0EFDFC1206218085E475143CF513F50A
:1005880012F5118541157F207E1CFDFC1206210203
:100598000506E4751478F513F512F5118541157FF4
:1005A800407E38FDFC120621020506E475142C7500
:1005B8001301F512F5118541157F607E54FDFC127B
:1005C8000621020506E4751458751302F512F51193
:1005D8008541157FC07EA87DFF7CFF12062102059C
:1005E80006E47514B0751304F512F5118541157FED
:1005F800807E51FDFC120621020506E4751408757B
:100608001307F512F5118541157F087E07FDFC12C9
:08061800062102050602050699
:0106200022B7
:080621008F108E0F8D0E8C0D61
:10062900E4F525F524F523F522F526F527853D1969
:10063900853C18853B17853A16E53E64017037AF4E
:1006490015EF3395E0FEEF64014E7006120A380289
:1006590006E4AF15EF3395E0FEEF64024E70051224
:100669000AA78077AF15EF3395E0FEEF64034E706C
:100679006A1207DE8065853D1D853C1C853B1B850F
:100689003A1AC3E53D951DFFE53C951CFEE53B95F2
:100699001BFDE53A951AFCAB14AA13A912A811D3AC
:1006A9001204C74036AF15EF3395E0FEEF64014EF3
:1006B9007005120A3880CBAF15EF3395E0FEEF6471
:1006C900024E7005120AA780B9AF15EF3395E0FE07
:1006D900EF64034E70AC1207DE80A7853D1D853C93
:1006E9001C853B1B853A1AC3E53D951DFFE53C95E5
:1006F9001CFEE53B951BFDE53A951AFCAB14AA13C4
:10070900A912A811D31204C7500302064280D802C5
:02071900064296
:01071B0022BB
:100B1600013F01013E010141000149000445000079
:0E0B26000000043A00000000014A0001401DDA
:100C2100E4FDFCC3ED9FEC9E500F791D7BB7DBFE0D
:090C3100D9FC0DBD00010C80EAA4
:010C3A002297
:100C6D00E4FDFCC3ED9FEC9E500C007B05DBFE0DFF
:060C7D00BD00010C80ED3A
:010C8300224E
:100C5500E4FDFCC3ED9FEC9E500D00007B47DBFEE1
:070C65000DBD00010C80EC45
:010C6C002265
:100B9800E4F593F594F591F592F595F596F5B1751B
:100BA800B203F5B3F5B4F5C975CAFFF5CBF5CCF5C5
:090BB800E1F5E27592FFF59122CE
:100B6300E4F5D875D90EF5E9F5F975DA40F5EAF546
:100B7300FA75F2C075DA4275DB40F5EBF5FB75F3F8
:100B8300C075DB4275DC40F5ECF5FC75F4C075DC33
:050B93004243D840229E
:100BC100AD07AC0675DA4053F2CFECC4F854F0C867
:100BD10068EDC4540F48543042F28DFA75DA42225E
:100BE100AD07AC0675DB4053F3CFECC4F854F0C845
:100BF10068EDC4540F48543042F38DFB75DB42223B
:100C0100AD07AC0675DC4053F4CFECC4F854F0C822
:100C110068EDC4540F48543042F48DFC75DC422217
:1009C700AB05AA04EF3395E04F7039D3EB9400EAF7
:1009D70064809480401374FF9BFF74039AFE120B8C
:1009E700C17FFF7E03120BE1227FFF7E03120BC143
:1009F700C3E49BFFE49AFEC374FF9FFF74039EFE4C
:100A0700120BE122C2B3D3EB9400EA6480948040D6
:100A17000C74FF9BFF74039AFE120C0122C3E49B24
:100A2700FFE49AFEC374FF9FFF74039EFE120C013E
:010A3700229C
:100C3B00E4F5CAF5C9438E805389F0758A9A758C91
:0A0C4B00A9C28DD28CD2A9D2AF222B
:100C8400759850438E40538EFE53890F758BD075E3
:070C94008DFFC2ABD28E22DE
:080CAE008F993099FDC29922D3
:03000B0002071CCD
:10071C00C0E0C0F0C083C082C0D075D000AF48AE7E
:10072C0047AD46AC45EF2401F548E43EF547E43DC2
:10073C00F546E43CF545E47BE87A03F9F8AF48AEBE
:10074C0047AD46AC45120435AC00AD01AE02AF036B
:10075C00E4FBFAF9F8C31204C77019AF3DAE3CAD17
:10076C003BAC3AEF2401F53DE43EF53CE43DF53B72
:10077C00E43CF53AE54954806480702B754A07AF28
:10078C0041EF640170057542148016AF41EF6402AD
:10079C007005754212800AAF41EF64037003754215
:1007AC001175430F853E44E54954406440700C7507
:1007BC004A0775420875430875440885442EAB43B7
:1007CC00AD42AF4A1201FBD0D0D082D083D0F0D052
:0207DC00E03209
:1001FB008F2B8D2C8B2DEF7006FDFF12088F22E5B8
:10020B002B64017008AD2E7F0312088F22E52B643F
:10021B00027008AD2D7F0212088F22E52B6404704B
:10022B0008AD2C7F0112088F22E52B6403703AE591
:10023B00485401FFE4FEFDFC7B01FAF9F8C31204FC
:10024B00C77008AD2D7F0212088F22E5485401FFBD
:10025B00E4FEFDFCFBFAF9F8C31204C760030203CA
:10026B0081AD2E7F0312088F22E52B6405703AE5D2
:10027B00485401FFE4FEFDFC7B01FAF9F8C31204BC
:10028B00C77008AD2C7F0112088F22E5485401FF7F
:10029B00E4FEFDFCFBFAF9F8C31204C7600302038A
:1002AB0081AD2E7F0312088F22E52B6406703AE591
:1002BB00485401FFE4FEFDFC7B01FAF9F8C312047C
:1002CB00C77008AD2C7F0112088F22E5485401FF3F
:1002DB00E4FEFDFCFBFAF9F8C31204C7600302034A
:1002EB0081AD2D7F0212088F22E52B64076003027C
:1002FB0003817B03FAF9F8AF48AE47AD46AC451224
:10030B000435AC00AD01AE02AF03E47B01FAF9F8A2
:10031B00C31204C77008AD2C7F0112088F22E47B37
:10032B0003FAF9F8AF48AE47AD46AC45120435AC0D
:10033B0000AD01AE02AF03E47B02FAF9F8C312047D
:10034B00C77008AD2D7F0212088F22E47B03FAF9E8
:10035B00F8AF48AE47AD46AC45120435AC00AD0125
:10036B00AE02AF03E4FBFAF9F8C31204C77007AD92
:07037B002E7F0312088F2200
:0A0C9B008F4A8D428B4385104422DE
:100A3800E4F5290535E53570020534AF488F28AF50
:100A480028AB07EB3395E0FAF9F8C3E5489BFFE5D7
:100A5800479AFEE54699FDE54598FCE47B01FAF9DD
:100A6800F8D31204C750D8AE34AF357C017DF412E8
:100A780003A4ED4C7028E52970047F0180027F00F3
:100A88008F29E5296010AF3FEF75F064A4FDACF045
:0E0A98007F021209C722E4FDFC7F021209C78B
:010AA600222D
:100AA700E4F5290537E53770020536AF488F28AFDB
:100AB70028AB07EB3395E0FAF9F8C3E5489BFFE568
:100AC700479AFEE54699FDE54598FCE47B01FAF96E
:100AD700F8D31204C750D8AE36AF377C017DF41275
:100AE70003A4ED4C7028E52970047F0180027F0084
:100AF7008F29E5296010AF3FEF75F064A4FDACF0D6
:0E0B07007F021209C722E4FDFC7F021209C71B
:010B150022BD
:1007DE00E4F529F52A0539E53970020538AF488F59
:1007EE0028AF28AB07EB3395E0FAF9F8C3E5489B41
:1007FE00FFE5479AFEE54699FDE54598FCE47B0149
:10080E00FAF9F8D31204C750D8AE38AF397C037D4D
:10081E00E81203A4ED4C7031E52970047F018002CB
:10082E007F008F29E5296011AF3FEF75F064A4FDBD
:10083E00ACF07F011209C78010E53FF40475F06437
:10084E00A4FDACF07F011209C7AE38AF397C017D33
:10085E00F41203A4ED4C7028E52A70047F01800287
:10086E007F008F2AE52A6010AF3FEF75F064A4FD7C
:10087E00ACF07F021209C722E4FDFC7F021209C709
:01088E002247
:100B34005500003F065B4F666D7D077F6F777C39FC
:080B44005E7971797638733E89
:10088F00EF64037032C2B4D2B5D2B674002DF582C4
:10089F00E43400F583E0FF1392B0EFA2E192B1A22E
:1008AF00E29292A2E39293A2E49294A2E59295A28D
:1008BF00E6929633929722EF64027032D2B4C2B5A9
:1008CF00D2B674002DF582E43400F583E0FF139265
:1008DF00B0EFA2E192B1A2E29292A2E39293A2E4CC
:1008EF009294A2E59295A2E6929633929722EF64A4
:1008FF00017032D2B4D2B5C2B674002DF582E43491
:10090F0000F583E0FF1392B0EFA2E192B1A2E29261
:10091F0092A2E39293A2E49294A2E59295A2E69218
:0C092F009633929722D2B4D2B5D2B622F1
:100B4C00115045464744404307150919160D1852D4
:060B5C00085A1C014B00C9
:090CA500D288D2A8D2AFD2B2224B
:0300030002000EEA
:10000E00C0E0C0F0C083C082C0D075D000C000C0B8
:0D001E0001C002C003C004C005C006C00739
:10002B00752F007530007531007532007533003057
:10003B00B2030201E075300075310F20B220E531BB
:10004B004530601A7F017E00120C21E531153170AD
:10005B00021530E531453070E20201E080DD20B25F
:10006B000302011575300075310730B220E53145BB
:10007B0030601A7F017E00120C21E53115317002C0
:10008B001530E531453070E20201E080DD7532005C
:10009B00C3E532940474809480506F753300C3E5CC
:1000AB0033940874809480505D20B20FE531453055
:1000BB0060097F057E00120C6D80EE753000753186
:1000CB000F30B2197F0A7E00120C55052FD3E52F86
:1000DB0094147480948040E90201E080E4744C2510
:1000EB0032F8C000E6FFC313D000F6C3E52F940827
:1000FB00748094804009744C2532F8E64480F67580
:10010B002F000533809805328086E54FF4654E60ED
:10011B001C753200C3E53294047480948040030252
:10012B0001E0744C2532F87600053280E775320019
:10013B00C3E53294117480948040030201E0745043
:10014B002532F8E6654E60030201DB853240AF4095
:10015B00FEEF6410701BE54B75F002120382ADF0DD
:10016B00ED3395E04D700543494080035349BF057E
:10017B004BE549544064406057EF640F4E701AE5ED
:10018B0049548064807012053ED3E53E9409748017
:10019B009480403C753E098037E540640E701AE54B
:1001AB0049548064807012153EC3E53E94017480FF
:1001BB009480501C753E018017AF40EF6403600ABA
:1001CB00EF64046005EF64057006E54024FEF5411D
:0501DB00053202013BAA
:1001E000D007D006D005D004D003D002D001D00073
:0B01F000D0D0D082D083D0F0D0E0321D
:100947000204D8E493A3F8E493A34003F68001F2EA
:1009570008DFF48029E493A3F85407240CC8C333B1
:10096700C4540F4420C8834004F456800146F6DF80
:10097700E4800B0102040810204080900B16E47EEF
:10098700019360BCA3FF543F30E509541FFEE49375
:10099700A360010ECF54C025E060A840B8E493A33C
:1009A700FAE493A3F8E493A3C8C582C8CAC583CA67
:1009B700F0A3C8C582C8CAC583CADFE9DEE780BE1F
:010B62000092
:10038200C2D530F707B2D563F0FF05F030E70CB203
:10039200D5F4048463F0FF05F080018430D502F4C3
:0203A200042233
:1003A400BC000BBE0029EF8DF084FFADF022E4CC3D
:1003B400F875F008EF2FFFEE33FEEC33FCEE9DEC06
:1003C400984005FCEE9DFE0FD5F0E9E4CEFD22ED4C
:1003D400F8F5F0EE8420D21CFEADF075F008EF2F96
:1003E400FFED33FD4007985006D5F0F222C398FD87
:0503F4000FD5F0EA2224
:1003F90075F008758200EF2FFFEE33FECD33CDCCBB
:1004090033CCC58233C5829BED9AEC99E58298403D
:100419000CF582EE9BFEED9AFDEC99FC0FD5F0D61A
:10042900E4CEFBE4CDFAE4CCF9A88222B800C1B944
:100439000059BA002DEC8BF084CFCECDFCE5F0CB82
:10044900F97818EF2FFFEE33FEED33FDEC33FCEBBB
:1004590033FB10D703994004EB99FB0FD8E5E4F976
:10046900FA227818EF2FFFEE33FEED33FDEC33FC63
:10047900C933C910D7059BE99A4007EC9BFCE99A57
:10048900F90FD8E0E4C9FAE4CCFB2275F010EF2F9C
:10049900FFEE33FEED33FDCC33CCC833C810D7079C
:1004A9009BEC9AE899400AED9BFDEC9AFCE899F8D7
:0E04B9000FD5F0DAE4CDFBE4CCFAE4C8F9226A
:1004C700EB9FF5F0EA9E42F0E99D42F0E89C45F08B
:0104D7002202
:00000001FF
