:03000000020D24CA
:0C0D2400787FE4F6D8FD75817C020D6B31
:10058C00E4F54F755328755223F551F550120FDED3
:10059C001210CA121122121081120FA9120FDEE5CD
:1005AC00277005534DF78005E4F54E80F275571111
:1005BC007B127D147F07121118E52860F0434D80E3
:1005CC00E54D5480648060030206F2E51D14B40905
:1005DC000040030206F29005F075F003A4C58325D4
:1005EC00F0C5837302060B02061F0206340206498D
:1005FC0002065E02067302068902069F0206B5E435
:10060C00F55BF55AF559F5587F0FFEFDFC120A5EA5
:10061C000206F2E4755B0AF55AF559F5587F1EFE91
:10062C00FDFC120A5E0206F2E4755B1EF55AF559E2
:10063C00F5587F3CFEFDFC120A5E0206F2E4755B87
:10064C003CF55AF559F5587F78FEFDFC120A5E020E
:10065C0006F2E4755B78F55AF559F5587FF0FEFD16
:10066C00FC120A5E0206F2E4755B2C755A01F55910
:10067C00F5587F687E01FDFC120A5E8069E4755BAB
:10068C0058755A02F559F5587FD07E02FDFC120AB6
:10069C005E8053E4755BB0755A04F559F5587FA02C
:1006AC007E05FDFC120A5E803DE47BE87A03F9F8D6
:1006BC00AF4BAE4AAD49AC481207DFAE02AF0312E6
:1006CC000F9E120F5C7C007DB412076DED243CFF75
:1006DC00E43CFE3395E0FDFCE4755B08755A07F5C8
:1006EC0059F558120A5EE54D54086408600302057A
:1006FC00CC751E01751D01F528F54D7527141210CA
:10070C00F6E54D540864087005534DF78005E4F583
:10071C004E80EE7557117B127D147F07121118E570
:0C072C002860F0434D800205CC0205CC93
:01073800229E
:080A5E008F578E568D558C5404
:100A6600E4F55FF55EF55DF55CF563F562F561F558
:100A760060F567F566F565F564F568F569F56A8507
:100A8600185F85175E85165D85155CF522F521F5DF
:100A960020F51FF547F546F545F544F543F542F5CE
:100AA60041F540851D6AE54D540864087003020B44
:100AB600DCE56A651D6003020BDCE54D541064102D
:100AC6007003020BDCAF57AE56AD55AC54AB47AA1C
:100AD60046A945A844C31208714003754D08E51D93
:100AE60064017021E52864017005120F0180B7E5E5
:100AF6002864027005120E2680ACE528640370A6F1
:100B0600120BDD80A1E4F526F525F524F523851DD8
:100B16006AAF5BAE5AAD59AC58AB26AA25A924A834
:100B260023C31208715050E56A651D704AE54D549D
:100B36001064106042E52864017005120F018014EC
:100B4600E52864027005120E268009E52864037004
:100B560003120BDDE54D54086408601BAF57AE5613
:100B6600AD55AC54AB47AA46A945A844C312087173
:100B7600409F754D08809AE4F526F525F524F52362
:100B8600AF5BAE5AAD59AC58AB26AA25A924A8230B
:100B9600C31208714003020AACE56A651D600302D0
:100BA6000AACE54D541064107003020AAC1210F63C
:100BB600E54D540864087003020AACAF57AE56AD53
:100BC60055AC54AB47AA46A945A844C31208714080
:060BD600AF754D0880AA76
:010BDC0022F6
:100DB000011E01011D01012800014D000448000031
:100DC0000000041500000000022C0000014E00018C
:100DD000271D041900000000041F00000000044447
:100DE00000000000044000000000014C000423004B
:100DF000000000010800010B01122E051404B004CC
:100E00004C03840320025801F40190012C020C00D1
:100E100000010E01020F0000021100000113000189
:020E20001400BC
:10106700E4FDFCC3ED9FEC9E500F791D7BB7DBFEC3
:09107700D9FC0DBD00010C80EA5A
:01108000224D
:1010B300E4FDFCC3ED9FEC9E500C007B05DBFE0DB5
:0610C300BD00010C80EDF0
:0110C9002204
:10109B00E4FDFCC3ED9FEC9E500D00007B47DBFE97
:0710AB000DBD00010C80ECFB
:0110B200221B
:100FDE00E4F593F594F591F592F595F596F5B175D1
:100FEE00B2FBF5B3F5B4F5C975CAFFF5CBF5CCF583
:090FFE00E1F5E27592FFF5912284
:100FA900E4F5D875D90EF5E9F5F975DA40F5EAF5FC
:100FB900FA75F2C075DA4275DB40F5EBF5FB75F3AE
:100FC900C075DB4275DC40F5ECF5FC75F4C075DCE9
:050FD9004243D8402254
:10100700AD07AC0675DA4053F2CFECC4F854F0C81C
:1010170068EDC4540F48543042F28DFA75DA422213
:10102700AD07AC0675DB4053F3CFECC4F854F0C8FA
:1010370068EDC4540F48543042F38DFB75DB4222F0
:10104700AD07AC0675DC4053F4CFECC4F854F0C8D8
:1010570068EDC4540F48543042F48DFC75DC4222CD
:100E9400AB05AA04EF3395E0FEEF64014E7031D345
:100EA400EB9400EA64809480401374FF9BFF740306
:100EB4009AFE1210077FFF7E03121027227FFF7E07
:100EC40003121007EB24FFFFEA3403FE121027225B
:100ED400C2B3D3EB9400EA64809480400C74FF9B0B
:100EE400FF74039AFE12104722C3E49BFFE49AFEA8
:0D0EF400C374FF9FFF74039EFE121047227F
:10108100E4F5CAF5C9438E805389F0758ACD758C14
:0A109100D4C28DD28CD2A9D2AF22B6
:1010CA00759850438E40538EFE53890F758BD07599
:0710DA008DFFC2ABD28E2294
:08112B008F993099FDC2992251
:03000B0002032FBE
:0D032F00C0E0C0F0C083C082C0D075D00017
:10033C00E54D54106410700BAF08EF3395E04F701F
:10034C00020508AF4CE4FCFDFEAB43AA42A941A850
:10035C0040C31208714016E54D54106410700EF530
:10036C0008754C01534DDF534DBF754D80AF4BAEEF
:10037C004AAD49AC48EF2401F54BE43EF54AE43D67
:10038C00F549E43CF548E47BD07A07F9F8AF4BAE7D
:10039C004AAD49AC481207DFAC00AD01AE02AF0369
:1003AC00E4FBFAF9F8C312087160030204FA7F53F4
:1003BC0012112B7B0AF8AF22AE21AD20AC1F120715
:1003CC00DFEF2430FF12112BE47B0AFAF9F8AF228D
:1003DC00AE21AD20AC1F1207DFEB2430FF12112B26
:1003EC007F0A12112B7F0D12112B7F4D12112BE452
:1003FC007B0AFAF9F8AF47AE46AD45AC441207DFBD
:10040C00EF2430FF12112BE47B0AFAF9F8AF47AE58
:10041C0046AD45AC441207DFEB2430FF12112B7FA5
:10042C000A12112B7F0D12112BAF18AE17AD16AC93
:10043C0015EF2401F518E43EF517E43DF516E43C00
:10044C00F515AF22AE21AD20AC1FEF2401F522E44F
:10045C003EF521E43DF520E43CF51FAF26AE25AD7D
:10046C0024AC23EF2401F526E43EF525E43DF524E8
:10047C00E43CF523E47B3CFAF9F8AF22AE21AD2045
:10048C00AC1F1207DFAC00AD01AE02AF03E4FBFA08
:10049C00F9F8C31208717056AF47AE46AD45AC447F
:1004AC00EF2401F547E43EF546E43DF545E43CF523
:1004BC0044E47B107A0EF8AF22AE21AD20AC1F12B3
:1004CC0007DFAC00AD01AE02AF03E4FBFAF9F8C3F1
:1004DC001208717019AF43AE42AD41AC40EF24012C
:1004EC00F543E43EF542E43DF541E43CF540E54D91
:1004FC0054806480702D754E07AF28EF6401700531
:10050C007529148016AF28EF6402700575291280C6
:10051C000AAF28EF64037003752911752A0F851D26
:10052C002B8032E54D542064207012754E077529CE
:10053C000EF52AAF43C3E54C9FF52B8018E54D54BF
:10054C001064107010754E0775290EF52AAF43C351
:10055C00E54C9FF52BE54D54406440700C754E07EF
:10056C00752908752A08752B08852B6EAB2AAD29C1
:05057C00AF4E1208D78C
:0B058100D0D0D082D083D0F0D0E03288
:1008D7008F6B8D6C8B6DEF7006FDFF120C8A22E516
:1008E7006B64017008AD6E7F03120C8A22E56B649E
:1008F700027008AD6D7F02120C8A22E56B640470EA
:1009070008AD6C7F01120C8A22E56B6403703AE52F
:100917004B5401FFE4FEFDFC7B01FAF9F8C3120812
:10092700717008AD6D7F02120C8A22E54B5401FFEE
:10093700E4FEFDFCFBFAF9F8C31208716003020A32
:100947005DAD6E7F03120C8A22E56B6405703AE594
:100957004B5401FFE4FEFDFC7B01FAF9F8C31208D2
:10096700717008AD6C7F01120C8A22E54B5401FFB0
:10097700E4FEFDFCFBFAF9F8C31208716003020AF2
:100987005DAD6E7F03120C8A22E56B6406703AE553
:100997004B5401FFE4FEFDFC7B01FAF9F8C3120892
:1009A700717008AD6C7F01120C8A22E54B5401FF70
:1009B700E4FEFDFCFBFAF9F8C31208716003020AB2
:1009C7005DAD6D7F02120C8A22E56B64076003023E
:1009D7000A5D7B03FAF9F8AF4BAE4AAD49AC481252
:1009E70007DFAC00AD01AE02AF03E47B01FAF9F813
:1009F700C31208717008AD6C7F01120C8A22E47B68
:100A070003FAF9F8AF4BAE4AAD49AC481207DFAC71
:100A170000AD01AE02AF03E47B02FAF9F8C3120896
:100A2700717008AD6D7F02120C8A22E47B03FAF91C
:100A3700F8AF4BAE4AAD49AC481207DFAC00AD0189
:100A4700AE02AF03E4FBFAF9F8C31208717007AD01
:070A57006E7F03120C8A22DE
:0A1118008F4E8D298B2A85572B225C
:100F01007F407E1F050AE50A70020509EF1FAC0646
:100F110070011E4C70F6FDFC7F01120E94E50A640F
:100F2100F47004E50964017031F509F50AE50B7007
:100F3100047F0180027F008F0BE50B6015AF1EEF70
:100F410075F032A42444FDE5F03401FC7F02120E59
:0A0F51009422E4FDFC7F02120E94CE
:010F5B002273
:100E26007F407E1F050DE50D7002050CEF1FAC0619
:100E360070011E4C70F6FDFC7F02120E94AF1EEF81
:100E460025E0242CF8E6FE08E6FFC3E50D9FE50C39
:100E56009E403AE4F50CF50DE50E70047F01800224
:100E66007F008F0EE50E6010AF1EEF75F064A4FDD7
:100E7600ACF07F01120E9422AF1EEF75F064A4FF52
:0D0E8600C3E49FFDE495F0FC7F01120E9483
:010E9300223C
:100BDD007F407E1F0510E5107002050F0512E5120E
:100BED0070020511EF1FAC0670011E4C70F6AF1EA2
:100BFD00EF25E0242CF8E6FE08E6FFC3E5109FE59F
:100C0D000F9E4040E4F50FF510E51370047F018051
:100C1D00027F008F13E5136011AF1EEF75F064A412
:100C2D00FDACF07F01120E94801AAF1EC3E49FFF3E
:100C3D00E49400FE7C007D6412075BAC06AD077F7B
:100C4D0001120E94E51264F47004E5116401702C28
:100C5D00F511F512E51470047F0180027F008F14E9
:100C6D00E5146010AF1EEF75F064A4FDACF07F02CB
:0C0C7D00120E9422E4FDFC7F02120E9483
:010C89002248
:1010F600E4FDFC7F01120E94E4FDFC7F02120E94C7
:0111060022C6
:1010E1003F065B4F666D7D077F6F777C395E797157
:0510F100797638733E22
:100C8A00EF6403702CC2B4D2B5D2B6ED9010E193E2
:100C9A00FF1392B0EFA2E192B1A2E29292A2E39282
:100CAA0093A2E49294A2E59295A2E6929633929741
:100CBA0022EF6402702CD2B4C2B5D2B6ED9010E124
:100CCA0093FF1392B0EFA2E192B1A2E29292A2E351
:100CDA009293A2E49294A2E59295A2E69296339216
:100CEA009722EF6401702CD2B4D2B5C2B6ED90103F
:100CFA00E193FF1392B0EFA2E192B1A2E29292A223
:100D0A00E39293A2E49294A2E59295A2E692963394
:0A0D1A00929722D2B4D2B5D2B622CD
:1011070045464744404307150919160D1852085A12
:011117001CBB
:030E220001740058
:09112200D288D2A8D2AFD2B222C9
:0300030002000EEA
:10000E00C0E0C0F0C083C082C0D075D000C000C0B8
:0D001E0001C002C003C004C005C006C00739
:10002B00756F007570007571007572007573003017
:10003B00B20302031475700075710F20B220E571C5
:10004B004570601A7F017E00121067E571157170A3
:10005B00021570E571457070E202031480DD20B269
:10006B000302011575700075710730B220E57145FB
:10007B0070601A7F017E00121067E57115717002B6
:10008B001570E571457070E202031480DD75720026
:10009B00C3E572940474809480506F757300C3E54C
:1000AB0073940874809480505D20B20FE571457095
:1000BB0060097F057E001210B380EE7570007571BC
:1000CB000F30B2197F0A7E0012109B056FD3E56FBC
:1000DB0094147480948040E902031480E4747525B1
:1000EB0072F8C000E6FFC313D000F6C3E56F9408A7
:1000FB0074809480400974752572F8E64480F67517
:10010B006F000573809805728086E578F4657760DB
:10011B001C757200C3E572940474809480400302D2
:10012B00031474752572F87600057280E7757200FA
:10013B00C3E5729411748094804003020314E5723A
:10014B00901107936577600302030F857227AF2722
:10015B00FEEF6410701BE57475F002120739ADF0F9
:10016B00ED3395E04D7005434D408003534DBF0576
:10017B0074E54D54406440700302030FEF640F4E5F
:10018B007026E54D54806480701EE54D542064202C
:10019B006016051DD3E51D940974809480500302ED
:1001AB0002D7751D090202D7E527640E7026E54DAF
:1001BB0054806480701EE54D542064206016151D1C
:1001CB00C3E51D94017480948040030202D7751D12
:1001DB00010202D7AF277E00EF6403600AEF6404CD
:1001EB006005EF64057009E52724FEF5280202D7A8
:1001FB00EF640C4E701EE54D548064807016051E26
:10020B00D3E51E94097480948050030202D7751EA7
:10021B00090202D7E527640D701EE54D54806480FA
:10022B007016151EC3E51E94017480948040030262
:10023B0002D7751E010202D7E527FB7A0064017015
:10024B003FE54D548064807037E54D542064206049
:10025B002F534D7F752200752100752000751F00EF
:10026B00754700754600754500754400754300756C
:10027B004200754100754000754C00434D20804C89
:10028B00EB64014A701EE54D542064207016534DEB
:10029B007F534DBF434D10F543F542F541F54012E9
:1002AB0010F68028E5276402701BE54D541064108E
:1002BB006008E54D54206420700B754D80534DDF65
:1002CB00534DBF8007E5277003434D08E54D542080
:1002DB0064207030AF27FEEF640F7012054CD3E52E
:1002EB004C940874809480401B754C088016EF6406
:1002FB000E4E7010154CC3E54C94017480948050D5
:09030B0003754C01057202013B6F
:10031400D007D006D005D004D003D002D001D0003D
:0B032400D0D0D082D083D0F0D0E032E7
:100D300002058CE493A3F8E493A34003F68001F248
:100D400008DFF48029E493A3F85407240CC8C333C4
:100D5000C4540F4420C8834004F456800146F6DF93
:100D6000E4800B0102040810204080900DB0E47E66
:100D7000019360BCA3FF543F30E509541FFEE49388
:100D8000A360010ECF54C025E060A840B8E493A34F
:100D9000FAE493A3F8E493A3C8C582C8CAC583CA7A
:100DA000F0A3C8C582C8CAC583CADFE9DEE780BE32
:010E250000CC
:10073900C2D530F707B2D563F0FF05F030E70CB248
:10074900D5F4048463F0FF05F080018430D502F408
:02075900042278
:10075B00EF8DF0A4A8F0CF8CF0A428CE8DF0A42EB2
:02076B00FE226C
:10076D00C2D5EC30E709B2D5E4C39DFDE49CFCEEA7
:10077D0030E715B2D5E4C39FFFE49EFE120882C395
:10078D00E49DFDE49CFC800312088230D507C3E490
:06079D009FFFE49EFE2216
:1007A30075F008758200EF2FFFEE33FECD33CDCC0D
:1007B30033CCC58233C5829BED9AEC99E582984090
:1007C3000CF582EE9BFEED9AFDEC99FC0FD5F0D66D
:1007D300E4CEFBE4CDFAE4CCF9A88222B800C1B997
:1007E3000059BA002DEC8BF084CFCECDFCE5F0CBD5
:1007F300F97818EF2FFFEE33FEED33FDEC33FCEB0E
:1008030033FB10D703994004EB99FB0FD8E5E4F9C8
:10081300FA227818EF2FFFEE33FEED33FDEC33FCB5
:10082300C933C910D7059BE99A4007EC9BFCE99AA9
:10083300F90FD8E0E4C9FAE4CCFB2275F010EF2FEE
:10084300FFEE33FEED33FDCC33CCC833C810D707EE
:100853009BEC9AE899400AED9BFDEC9AFCE899F829
:0E0863000FD5F0DAE4CDFBE4CCFAE4C8F922BC
:10087100EB9FF5F0EA9E42F0E99D42F0E89C45F0DD
:010881002254
:100F5C00AC79AD7AAE7BAF7C7810EC4D4E4F700413
:100F6C007CA57DA5C3EC13FCED13FDEE13FEEF1376
:100F7C00FF5010EC64CCFCED644CFDEE644EFEEFC7
:100F8C0064CEFFD8DF8C798D7A8E7B8F7CEE547F8C
:0D0F9C00FE228E798F7A74A5F57BF57C22FC
:10088200BC000BBE0029EF8DF084FFADF022E4CC5A
:10089200F875F008EF2FFFEE33FEEC33FCEE9DEC23
:1008A200984005FCEE9DFE0FD5F0E9E4CEFD22ED69
:1008B200F8F5F0EE8420D21CFEADF075F008EF2FB3
:1008C200FFED33FD4007985006D5F0F222C398FDA4
:0508D2000FD5F0EA2241
:00000001FF
